:100000000C9435000C945D000C945D000C945D0024
:100010000C945D000C945D000C945D000C945D00EC
:100020000C945D000C945D000C945D000C945D00DC
:100030000C945D000C945D000C945D000C945D00CC
:100040000C94FA010C945D000C94C0010C94850191
:100050000C945D000C945D000C945D000C945D00AC
:100060000C945D000C945D00440211241FBECFEF80
:10007000D8E0DEBFCDBF11E0A0E0B1E0EEE2F7E0F6
:1000800002C005900D92A635B107D9F722E0A6E58A
:10009000B1E001C01D92A930B207E1F710E0C5E35D
:1000A000D0E004C02197FE010E948F03C433D10722
:1000B000C9F70E947F020C948C030C9400000F93EC
:1000C0001F93CF93DF93FC01A685B7858D01005C5C
:1000D0001F4FE8018881998101968F739927AD019F
:1000E0004E5B5F4FEA012881398182179307D1F374
:1000F000E80128813981A20FB31F6C93A685B785CB
:10010000A05CBF4F11969C938E93A689B7892C91C2
:1001100081E090E0078C02C0880F991F0A94E2F7F3
:10012000822B8C9381E081A30488F589E02D808166
:100130008064808381E090E0DF91CF911F910F91E7
:100140000895FC0181A1882329F0A489B5898C91A7
:1001500086FFFBCF11A20895FC01A485B585FD01A2
:10016000E05CFF4F20813181329680819181281798
:10017000390779F080819181A80FB91F8C91208176
:1001800031812F5F3F4F2F7333273183208390E0DE
:1001900008958FEF9FEF0895DC011C96ED91FC917F
:1001A0001D97DF01A05CBF4F2D913C9111971296D6
:1001B0008D919C9111972817390739F08D919C9159
:1001C000E80FF91F808190E008958FEF9FEF089569
:1001D000FC0124853585F901E05CFF4F8081918128
:1001E000329620813181821B930B8F73992708955A
:1001F00087EE91E00C94E8000895CF92DF92EF92A1
:10020000FF920F931F93CF93DF936C01EB017B0160
:10021000E40EF51E00E010E0CE15DF0561F06991F7
:10022000D601ED91FC910190F081E02DC601099578
:10023000080F191FF1CFC801DF91CF911F910F91C6
:10024000FF90EF90DF90CF9008953FB7F8948091A2
:100250005B0190915C01A0915D01B0915E0126B5BA
:10026000A89B05C02F3F19F00196A11DB11D3FBFEE
:10027000BA2FA92F982F8827820F911DA11DB11D7C
:10028000BC01CD0142E0660F771F881F991F4A9578
:10029000D1F70895009769F0FC0101900020E9F77B
:1002A0003197AF01481B590BBC0187EE91E00C94CC
:1002B000FD0080E090E00895EF92FF920F931F936E
:1002C000CF93DF930E944A01EC0107EE11E0D801C1
:1002D000ED91FC910190F081E02D6DE0C801099550
:1002E0007C01D801ED91FC910190F081E02D6AE054
:1002F000C8010995CE0DDF1D8C0F9D1FDF91CF9199
:100300001F910F91FF90EF9008951F920F920FB6DB
:100310000F9211242F933F938F939F93EF93FF930B
:1003200020919F013091A0018091A1019091A201A3
:100330002817390731F48091C1008F7D8093C10067
:1003400014C0E091A101F091A201E15AFE4F208179
:100350008091A1019091A20101968F7399279093AA
:10036000A2018093A1012093C600FF91EF919F917C
:100370008F913F912F910F900FBE0F901F90189566
:100380001F920F920FB60F9211242F934F935F93EA
:100390008F939F93EF93FF938091C00082FD1CC0C9
:1003A0002091C6008091E3019091E40101968F7342
:1003B00099274091E5015091E6018417950771F066
:1003C000E091E301F091E401ED55FE4F208390931D
:1003D000E4018093E30102C08091C600FF91EF9198
:1003E0009F918F915F914F912F910F900FBE0F9022
:1003F0001F9018951F920F920FB60F9211242F93F2
:100400003F938F939F93AF93BF93809157019091A8
:100410005801A0915901B0915A013091560123E041
:10042000230F2D3720F40196A11DB11D05C026E82C
:10043000230F0296A11DB11D2093560180935701F1
:1004400090935801A0935901B0935A0180915B0198
:1004500090915C01A0915D01B0915E010196A11D9A
:10046000B11D80935B0190935C01A0935D01B093FB
:100470005E01BF91AF919F918F913F912F910F900E
:100480000FBE0F901F901895E7EEF1E013821282D5
:1004900088EE93E0A0E0B0E084839583A683B783E1
:1004A00084E091E09183808383EA91E0958784875B
:1004B0008FE591E09787868785EC90E0918B808B24
:1004C00084EC90E0938B828B80EC90E0958B848B16
:1004D00081EC90E0978B868B82EC90E0918F808FFF
:1004E00086EC90E0938F828F84E0848F83E0858F09
:1004F00087E0868F85E0878F81E080A308957894D8
:1005000084B5826084BD84B5816084BD85B5826018
:1005100085BD85B5816085BD80916E0081608093C9
:100520006E00109281008091810082608093810032
:100530008091810081608093810080918000816042
:10054000809380008091B10084608093B10080919D
:10055000B00081608093B00080917A0084608093C5
:100560007A0080917A00826080937A0080917A008C
:10057000816080937A0080917A00806880937A000D
:100580001092C100E091FB01F091FC0181E090E04C
:100590009C010090070202C0220F331F0A94E2F769
:1005A0002083E091F701F091F8011082E091F901C8
:1005B000F091FA012FEC208310920802E091FD01E6
:1005C000F091FE0140819C010090030202C0220FC5
:1005D000331F0A94E2F7242B2083E091FD01F09170
:1005E000FE0140819C010090040202C0220F331FD3
:1005F0000A94E2F7242B2083E091FD01F091FE01A3
:1006000040819C010090050202C0220F331F0A9412
:10061000E2F7242B2083E091FD01F091FE0120817F
:100620000090060202C0880F991F0A94E2F7809595
:100630008223808387EE91E00E94E80002970CF409
:100640004DC087EE91E00E94AC00C82F87EE91E08C
:100650000E94AC00D0EDD80F90ED9C0F933091F03C
:1006600038F4913061F09230A1F487E191E00FC04D
:10067000943059F0953069F488E291E008C080E147
:1006800091E005C08EE191E002C084E291E00E9419
:100690004A0180E391E00E944A01D330A1F038F48E
:1006A000D13071F0D23031F686E391E014C0D5300C
:1006B00081F060F0D63009F0BDCF8FE491E00BC03F
:1006C00082E391E008C08DE391E005C084E491E00D
:1006D00002C08AE491E00E945C01ACCF0E94250137
:1006E000EB0184E6C82ED12CE12CF12C0E942501CF
:1006F0006C1B7D0B683E734038F081E0C81AD1084E
:10070000E108F108C851DC4FC114D104E104F1043F
:1007100069F70E94F8008ECFF8940C949503EE0FC1
:0E072000FF1F0590F491E02D0994F894FFCF8F
:10072E00000000005F00FD00E800AC00CC00A1005E
:10073E00416E67656C610057617272656E00546F31
:10074E0062627900546F6D004A6F686E736F6E004F
:10075E002C00526564004F72616E67650059656CBE
:10076E006C6F7700477265656E00426C7565005060
:06077E007572706C65004D
:00000001FF
